{
  "_format": "hh-sol-artifact-1",
  "contractName": "Marketplace",
  "sourceName": "contracts/Marketplace.sol",
  "abi": [
    {
      "inputs": [
        {
          "internalType": "address",
          "name": "_weth",
          "type": "address"
        }
      ],
      "stateMutability": "nonpayable",
      "type": "constructor"
    },
    {
      "anonymous": false,
      "inputs": [
        {
          "indexed": true,
          "internalType": "address",
          "name": "bidder",
          "type": "address"
        },
        {
          "indexed": true,
          "internalType": "address",
          "name": "owner",
          "type": "address"
        },
        {
          "indexed": false,
          "internalType": "uint256",
          "name": "price",
          "type": "uint256"
        },
        {
          "indexed": true,
          "internalType": "address",
          "name": "erc721",
          "type": "address"
        },
        {
          "indexed": false,
          "internalType": "uint256",
          "name": "tokenId",
          "type": "uint256"
        }
      ],
      "name": "NewBid",
      "type": "event"
    },
    {
      "anonymous": false,
      "inputs": [
        {
          "indexed": true,
          "internalType": "address",
          "name": "seller",
          "type": "address"
        },
        {
          "indexed": false,
          "internalType": "uint256",
          "name": "price",
          "type": "uint256"
        },
        {
          "indexed": true,
          "internalType": "address",
          "name": "erc721",
          "type": "address"
        },
        {
          "indexed": false,
          "internalType": "uint256",
          "name": "tokenId",
          "type": "uint256"
        }
      ],
      "name": "NewOffer",
      "type": "event"
    },
    {
      "anonymous": false,
      "inputs": [
        {
          "indexed": true,
          "internalType": "address",
          "name": "buyer",
          "type": "address"
        },
        {
          "indexed": true,
          "internalType": "address",
          "name": "seller",
          "type": "address"
        },
        {
          "indexed": false,
          "internalType": "uint256",
          "name": "price",
          "type": "uint256"
        },
        {
          "indexed": true,
          "internalType": "address",
          "name": "erc721",
          "type": "address"
        },
        {
          "indexed": false,
          "internalType": "uint256",
          "name": "tokenId",
          "type": "uint256"
        }
      ],
      "name": "Sale",
      "type": "event"
    },
    {
      "inputs": [
        {
          "internalType": "address",
          "name": "",
          "type": "address"
        },
        {
          "internalType": "uint256",
          "name": "",
          "type": "uint256"
        }
      ],
      "name": "bids",
      "outputs": [
        {
          "internalType": "address",
          "name": "bidder",
          "type": "address"
        },
        {
          "internalType": "uint256",
          "name": "price",
          "type": "uint256"
        }
      ],
      "stateMutability": "view",
      "type": "function"
    },
    {
      "inputs": [
        {
          "internalType": "address",
          "name": "_erc721",
          "type": "address"
        },
        {
          "internalType": "uint256",
          "name": "_tokenId",
          "type": "uint256"
        },
        {
          "internalType": "uint256",
          "name": "_bid",
          "type": "uint256"
        }
      ],
      "name": "makeBid",
      "outputs": [],
      "stateMutability": "nonpayable",
      "type": "function"
    },
    {
      "inputs": [
        {
          "internalType": "address",
          "name": "_erc721",
          "type": "address"
        },
        {
          "internalType": "uint256",
          "name": "_tokenId",
          "type": "uint256"
        },
        {
          "internalType": "uint256",
          "name": "_price",
          "type": "uint256"
        }
      ],
      "name": "makeOffer",
      "outputs": [],
      "stateMutability": "nonpayable",
      "type": "function"
    },
    {
      "inputs": [
        {
          "internalType": "address",
          "name": "",
          "type": "address"
        },
        {
          "internalType": "uint256",
          "name": "",
          "type": "uint256"
        }
      ],
      "name": "offers",
      "outputs": [
        {
          "internalType": "address payable",
          "name": "seller",
          "type": "address"
        },
        {
          "internalType": "uint256",
          "name": "price",
          "type": "uint256"
        }
      ],
      "stateMutability": "view",
      "type": "function"
    },
    {
      "inputs": [
        {
          "internalType": "address",
          "name": "_erc721",
          "type": "address"
        },
        {
          "internalType": "uint256",
          "name": "_tokenId",
          "type": "uint256"
        }
      ],
      "name": "removeBid",
      "outputs": [],
      "stateMutability": "nonpayable",
      "type": "function"
    },
    {
      "inputs": [
        {
          "internalType": "address",
          "name": "_erc721",
          "type": "address"
        },
        {
          "internalType": "uint256",
          "name": "_tokenId",
          "type": "uint256"
        }
      ],
      "name": "removeOffer",
      "outputs": [],
      "stateMutability": "nonpayable",
      "type": "function"
    },
    {
      "inputs": [
        {
          "internalType": "address",
          "name": "_erc721",
          "type": "address"
        },
        {
          "internalType": "uint256",
          "name": "_tokenId",
          "type": "uint256"
        }
      ],
      "name": "takeBid",
      "outputs": [],
      "stateMutability": "nonpayable",
      "type": "function"
    },
    {
      "inputs": [
        {
          "internalType": "address",
          "name": "_erc721",
          "type": "address"
        },
        {
          "internalType": "uint256",
          "name": "_tokenId",
          "type": "uint256"
        }
      ],
      "name": "takeOffer",
      "outputs": [],
      "stateMutability": "payable",
      "type": "function"
    },
    {
      "inputs": [],
      "name": "weth",
      "outputs": [
        {
          "internalType": "contract IERC20",
          "name": "",
          "type": "address"
        }
      ],
      "stateMutability": "view",
      "type": "function"
    }
  ],
  "bytecode": "0x60806040523480156200001157600080fd5b50604051620021d4380380620021d4833981810160405281019062000037919062000095565b806000806101000a81548173ffffffffffffffffffffffffffffffffffffffff021916908373ffffffffffffffffffffffffffffffffffffffff160217905550506200010f565b6000815190506200008f81620000f5565b92915050565b600060208284031215620000a857600080fd5b6000620000b8848285016200007e565b91505092915050565b6000620000ce82620000d5565b9050919050565b600073ffffffffffffffffffffffffffffffffffffffff82169050919050565b6200010081620000c1565b81146200010c57600080fd5b50565b6120b5806200011f6000396000f3fe6080604052600436106100865760003560e01c80636aef9a67116100595780636aef9a67146101465780637de3bd071461016f57806392499dcf14610198578063aa1a8411146101b4578063b1bff7b8146101f257610086565b806301495c1c1461008b57806308bf759d146100c95780631bdae6f1146100f25780633fc8cef31461011b575b600080fd5b34801561009757600080fd5b506100b260048036038101906100ad91906117b5565b61021b565b6040516100c0929190611d27565b60405180910390f35b3480156100d557600080fd5b506100f060048036038101906100eb91906117b5565b61026c565b005b3480156100fe57600080fd5b50610119600480360381019061011491906117f1565b610704565b005b34801561012757600080fd5b50610130610a58565b60405161013d9190611d50565b60405180910390f35b34801561015257600080fd5b5061016d600480360381019061016891906117b5565b610a7c565b005b34801561017b57600080fd5b50610196600480360381019061019191906117f1565b610cc3565b005b6101b260048036038101906101ad91906117b5565b610f3d565b005b3480156101c057600080fd5b506101db60048036038101906101d691906117b5565b6114cc565b6040516101e9929190611c9e565b60405180910390f35b3480156101fe57600080fd5b50610219600480360381019061021491906117b5565b61151d565b005b6002602052816000526040600020602052806000526040600020600091509150508060000160009054906101000a900473ffffffffffffffffffffffffffffffffffffffff16908060010154905082565b3373ffffffffffffffffffffffffffffffffffffffff168273ffffffffffffffffffffffffffffffffffffffff16636352211e836040518263ffffffff1660e01b81526004016102bc9190611f14565b60206040518083038186803b1580156102d457600080fd5b505afa1580156102e8573d6000803e3d6000fd5b505050506040513d601f19601f8201168201806040525081019061030c919061178c565b73ffffffffffffffffffffffffffffffffffffffff1614610362576040517f08c379a000000000000000000000000000000000000000000000000000000000815260040161035990611ef4565b60405180910390fd5b6000600260008473ffffffffffffffffffffffffffffffffffffffff1673ffffffffffffffffffffffffffffffffffffffff1681526020019081526020016000206000838152602001908152602001600020905060008160010154116103fd576040517f08c379a00000000000000000000000000000000000000000000000000000000081526004016103f490611eb4565b60405180910390fd5b8273ffffffffffffffffffffffffffffffffffffffff166342842e0e338360000160009054906101000a900473ffffffffffffffffffffffffffffffffffffffff16856040518463ffffffff1660e01b815260040161045e93929190611cf0565b600060405180830381600087803b15801561047857600080fd5b505af115801561048c573d6000803e3d6000fd5b5050505060008054906101000a900473ffffffffffffffffffffffffffffffffffffffff1673ffffffffffffffffffffffffffffffffffffffff166323b872dd8260000160009054906101000a900473ffffffffffffffffffffffffffffffffffffffff163384600101546040518463ffffffff1660e01b815260040161051593929190611cf0565b602060405180830381600087803b15801561052f57600080fd5b505af1158015610543573d6000803e3d6000fd5b505050506040513d601f19601f820116820180604052508101906105679190611840565b508273ffffffffffffffffffffffffffffffffffffffff163373ffffffffffffffffffffffffffffffffffffffff168260000160009054906101000a900473ffffffffffffffffffffffffffffffffffffffff1673ffffffffffffffffffffffffffffffffffffffff167f03fa4ddbd1b2dd49f897e6f62f99743d807736696e74be53c5631f8418f65c07846001015486604051610606929190611f2f565b60405180910390a460008160000160006101000a81548173ffffffffffffffffffffffffffffffffffffffff021916908373ffffffffffffffffffffffffffffffffffffffff160217905550600081600101819055506000600160008573ffffffffffffffffffffffffffffffffffffffff1673ffffffffffffffffffffffffffffffffffffffff1681526020019081526020016000206000848152602001908152602001600020905060008160000160006101000a81548173ffffffffffffffffffffffffffffffffffffffff021916908373ffffffffffffffffffffffffffffffffffffffff1602179055506000816001018190555050505050565b60008373ffffffffffffffffffffffffffffffffffffffff16636352211e846040518263ffffffff1660e01b815260040161073f9190611f14565b60206040518083038186803b15801561075757600080fd5b505afa15801561076b573d6000803e3d6000fd5b505050506040513d601f19601f8201168201806040525081019061078f919061178c565b90503373ffffffffffffffffffffffffffffffffffffffff168173ffffffffffffffffffffffffffffffffffffffff161415610800576040517f08c379a00000000000000000000000000000000000000000000000000000000081526004016107f790611df4565b60405180910390fd5b8160008054906101000a900473ffffffffffffffffffffffffffffffffffffffff1673ffffffffffffffffffffffffffffffffffffffff1663dd62ed3e33306040518363ffffffff1660e01b815260040161085c929190611cc7565b60206040518083038186803b15801561087457600080fd5b505afa158015610888573d6000803e3d6000fd5b505050506040513d601f19601f820116820180604052508101906108ac9190611869565b10156108ed576040517f08c379a00000000000000000000000000000000000000000000000000000000081526004016108e490611ed4565b60405180910390fd5b6000600260008673ffffffffffffffffffffffffffffffffffffffff1673ffffffffffffffffffffffffffffffffffffffff1681526020019081526020016000206000858152602001908152602001600020905080600101548311610987576040517f08c379a000000000000000000000000000000000000000000000000000000000815260040161097e90611d94565b60405180910390fd5b338160000160006101000a81548173ffffffffffffffffffffffffffffffffffffffff021916908373ffffffffffffffffffffffffffffffffffffffff1602179055508281600101819055508473ffffffffffffffffffffffffffffffffffffffff168273ffffffffffffffffffffffffffffffffffffffff163373ffffffffffffffffffffffffffffffffffffffff167fea6f685393e421adcde8f701918e8a0c2b8010b586fbe78d357c5112927181c48688604051610a49929190611f2f565b60405180910390a45050505050565b60008054906101000a900473ffffffffffffffffffffffffffffffffffffffff1681565b6000600260008473ffffffffffffffffffffffffffffffffffffffff1673ffffffffffffffffffffffffffffffffffffffff168152602001908152602001600020600083815260200190815260200160002090503373ffffffffffffffffffffffffffffffffffffffff168160000160009054906101000a900473ffffffffffffffffffffffffffffffffffffffff1673ffffffffffffffffffffffffffffffffffffffff1614610b62576040517f08c379a0000000000000000000000000000000000000000000000000000000008152600401610b5990611e14565b60405180910390fd5b60008373ffffffffffffffffffffffffffffffffffffffff16636352211e846040518263ffffffff1660e01b8152600401610b9d9190611f14565b60206040518083038186803b158015610bb557600080fd5b505afa158015610bc9573d6000803e3d6000fd5b505050506040513d601f19601f82011682018060405250810190610bed919061178c565b90506000826001018190555060008260000160006101000a81548173ffffffffffffffffffffffffffffffffffffffff021916908373ffffffffffffffffffffffffffffffffffffffff1602179055508373ffffffffffffffffffffffffffffffffffffffff168173ffffffffffffffffffffffffffffffffffffffff16600073ffffffffffffffffffffffffffffffffffffffff167fea6f685393e421adcde8f701918e8a0c2b8010b586fbe78d357c5112927181c4600087604051610cb5929190611d6b565b60405180910390a450505050565b3373ffffffffffffffffffffffffffffffffffffffff168373ffffffffffffffffffffffffffffffffffffffff16636352211e846040518263ffffffff1660e01b8152600401610d139190611f14565b60206040518083038186803b158015610d2b57600080fd5b505afa158015610d3f573d6000803e3d6000fd5b505050506040513d601f19601f82011682018060405250810190610d63919061178c565b73ffffffffffffffffffffffffffffffffffffffff1614610db9576040517f08c379a0000000000000000000000000000000000000000000000000000000008152600401610db090611ef4565b60405180910390fd5b60008111610dfc576040517f08c379a0000000000000000000000000000000000000000000000000000000008152600401610df390611e34565b60405180910390fd5b600060405180604001604052803373ffffffffffffffffffffffffffffffffffffffff16815260200183815250905080600160008673ffffffffffffffffffffffffffffffffffffffff1673ffffffffffffffffffffffffffffffffffffffff168152602001908152602001600020600085815260200190815260200160002060008201518160000160006101000a81548173ffffffffffffffffffffffffffffffffffffffff021916908373ffffffffffffffffffffffffffffffffffffffff160217905550602082015181600101559050508373ffffffffffffffffffffffffffffffffffffffff163373ffffffffffffffffffffffffffffffffffffffff167f5e6559263e92a440078ece3c37371a6e26865550186becb75880be9114f550c68486604051610f2f929190611f2f565b60405180910390a350505050565b6000600160008473ffffffffffffffffffffffffffffffffffffffff1673ffffffffffffffffffffffffffffffffffffffff168152602001908152602001600020600083815260200190815260200160002090506000816001015411610fd8576040517f08c379a0000000000000000000000000000000000000000000000000000000008152600401610fcf90611db4565b60405180910390fd5b8060000160009054906101000a900473ffffffffffffffffffffffffffffffffffffffff1673ffffffffffffffffffffffffffffffffffffffff168373ffffffffffffffffffffffffffffffffffffffff16636352211e846040518263ffffffff1660e01b815260040161104c9190611f14565b60206040518083038186803b15801561106457600080fd5b505afa158015611078573d6000803e3d6000fd5b505050506040513d601f19601f8201168201806040525081019061109c919061178c565b73ffffffffffffffffffffffffffffffffffffffff16146110f2576040517f08c379a00000000000000000000000000000000000000000000000000000000081526004016110e990611dd4565b60405180910390fd5b8060010154341015611139576040517f08c379a000000000000000000000000000000000000000000000000000000000815260040161113090611e94565b60405180910390fd5b3373ffffffffffffffffffffffffffffffffffffffff168160000160009054906101000a900473ffffffffffffffffffffffffffffffffffffffff1673ffffffffffffffffffffffffffffffffffffffff1614156111cc576040517f08c379a00000000000000000000000000000000000000000000000000000000081526004016111c390611e54565b60405180910390fd5b60008160000160009054906101000a900473ffffffffffffffffffffffffffffffffffffffff1673ffffffffffffffffffffffffffffffffffffffff163460405161121690611c52565b60006040518083038185875af1925050503d8060008114611253576040519150601f19603f3d011682016040523d82523d6000602084013e611258565b606091505b505090508061129c576040517f08c379a000000000000000000000000000000000000000000000000000000000815260040161129390611e74565b60405180910390fd5b8373ffffffffffffffffffffffffffffffffffffffff166342842e0e8360000160009054906101000a900473ffffffffffffffffffffffffffffffffffffffff1633866040518463ffffffff1660e01b81526004016112fd93929190611c67565b600060405180830381600087803b15801561131757600080fd5b505af115801561132b573d6000803e3d6000fd5b505050508373ffffffffffffffffffffffffffffffffffffffff168260000160009054906101000a900473ffffffffffffffffffffffffffffffffffffffff1673ffffffffffffffffffffffffffffffffffffffff163373ffffffffffffffffffffffffffffffffffffffff167f03fa4ddbd1b2dd49f897e6f62f99743d807736696e74be53c5631f8418f65c078560010154876040516113cd929190611f2f565b60405180910390a460008260000160006101000a81548173ffffffffffffffffffffffffffffffffffffffff021916908373ffffffffffffffffffffffffffffffffffffffff160217905550600082600101819055506000600260008673ffffffffffffffffffffffffffffffffffffffff1673ffffffffffffffffffffffffffffffffffffffff1681526020019081526020016000206000858152602001908152602001600020905060008160000160006101000a81548173ffffffffffffffffffffffffffffffffffffffff021916908373ffffffffffffffffffffffffffffffffffffffff160217905550600081600101819055505050505050565b6001602052816000526040600020602052806000526040600020600091509150508060000160009054906101000a900473ffffffffffffffffffffffffffffffffffffffff16908060010154905082565b3373ffffffffffffffffffffffffffffffffffffffff168273ffffffffffffffffffffffffffffffffffffffff16636352211e836040518263ffffffff1660e01b815260040161156d9190611f14565b60206040518083038186803b15801561158557600080fd5b505afa158015611599573d6000803e3d6000fd5b505050506040513d601f19601f820116820180604052508101906115bd919061178c565b73ffffffffffffffffffffffffffffffffffffffff1614611613576040517f08c379a000000000000000000000000000000000000000000000000000000000815260040161160a90611ef4565b60405180910390fd5b6000600160008473ffffffffffffffffffffffffffffffffffffffff1673ffffffffffffffffffffffffffffffffffffffff168152602001908152602001600020600083815260200190815260200160002090506000816001018190555060008160000160006101000a81548173ffffffffffffffffffffffffffffffffffffffff021916908373ffffffffffffffffffffffffffffffffffffffff1602179055508273ffffffffffffffffffffffffffffffffffffffff16600073ffffffffffffffffffffffffffffffffffffffff167f5e6559263e92a440078ece3c37371a6e26865550186becb75880be9114f550c6600085604051611716929190611d6b565b60405180910390a3505050565b6000813590506117328161203a565b92915050565b6000815190506117478161203a565b92915050565b60008151905061175c81612051565b92915050565b60008135905061177181612068565b92915050565b60008151905061178681612068565b92915050565b60006020828403121561179e57600080fd5b60006117ac84828501611738565b91505092915050565b600080604083850312156117c857600080fd5b60006117d685828601611723565b92505060206117e785828601611762565b9150509250929050565b60008060006060848603121561180657600080fd5b600061181486828701611723565b935050602061182586828701611762565b925050604061183686828701611762565b9150509250925092565b60006020828403121561185257600080fd5b60006118608482850161174d565b91505092915050565b60006020828403121561187b57600080fd5b600061188984828501611777565b91505092915050565b61189b81611fce565b82525050565b6118aa81611f86565b82525050565b6118b981611f74565b82525050565b6118c881611fe0565b82525050565b6118d781612004565b82525050565b60006118ea602283611f63565b91507f426964206d7573742062652067726561746572207468616e206c61737420626960008301527f642e0000000000000000000000000000000000000000000000000000000000006020830152604082019050919050565b6000611950601183611f63565b91507f4e4654206e6f7420666f722073616c652e0000000000000000000000000000006000830152602082019050919050565b6000611990601f83611f63565b91507f53656c6c6572206e6f206c6f6e676572206f776e732074686973204e46542e006000830152602082019050919050565b60006119d0601f83611f63565b91507f596f752063616e6e6f7420626964206f6e20796f7572206f776e204e46542e006000830152602082019050919050565b6000611a10601783611f63565b91507f596f7520617265206e6f7420746865206269646465722e0000000000000000006000830152602082019050919050565b6000611a50600f83611f63565b91507f43616e6e6f74206f6666657220302e00000000000000000000000000000000006000830152602082019050919050565b6000611a90600083611f58565b9150600082019050919050565b6000611aaa601b83611f63565b91507f43616e6e6f742074616b6520796f7572206f776e206f666665722e00000000006000830152602082019050919050565b6000611aea601a83611f63565b91507f5472616e736665722077617320756e7375636365737366756c2e0000000000006000830152602082019050919050565b6000611b2a601583611f63565b91507f496e73756666696369656e74207061796d656e742e00000000000000000000006000830152602082019050919050565b6000611b6a601083611f63565b91507f5468657265206973206e6f206269642e000000000000000000000000000000006000830152602082019050919050565b6000611baa603e83611f63565b91507f596f7520646964206e6f74206769766520616c6c6f77616e636520666f72206d60008301527f61726b6574706c61636520746f207370656e6420796f757220574554482e00006020830152604082019050919050565b6000611c10601883611f63565b91507f596f7520646f206e6f74206f776e2074686973204e46542e00000000000000006000830152602082019050919050565b611c4c81611fc4565b82525050565b6000611c5d82611a83565b9150819050919050565b6000606082019050611c7c6000830186611892565b611c896020830185611892565b611c966040830184611c43565b949350505050565b6000604082019050611cb360008301856118a1565b611cc06020830184611c43565b9392505050565b6000604082019050611cdc60008301856118b0565b611ce960208301846118b0565b9392505050565b6000606082019050611d0560008301866118b0565b611d1260208301856118b0565b611d1f6040830184611c43565b949350505050565b6000604082019050611d3c60008301856118b0565b611d496020830184611c43565b9392505050565b6000602082019050611d6560008301846118bf565b92915050565b6000604082019050611d8060008301856118ce565b611d8d6020830184611c43565b9392505050565b60006020820190508181036000830152611dad816118dd565b9050919050565b60006020820190508181036000830152611dcd81611943565b9050919050565b60006020820190508181036000830152611ded81611983565b9050919050565b60006020820190508181036000830152611e0d816119c3565b9050919050565b60006020820190508181036000830152611e2d81611a03565b9050919050565b60006020820190508181036000830152611e4d81611a43565b9050919050565b60006020820190508181036000830152611e6d81611a9d565b9050919050565b60006020820190508181036000830152611e8d81611add565b9050919050565b60006020820190508181036000830152611ead81611b1d565b9050919050565b60006020820190508181036000830152611ecd81611b5d565b9050919050565b60006020820190508181036000830152611eed81611b9d565b9050919050565b60006020820190508181036000830152611f0d81611c03565b9050919050565b6000602082019050611f296000830184611c43565b92915050565b6000604082019050611f446000830185611c43565b611f516020830184611c43565b9392505050565b600081905092915050565b600082825260208201905092915050565b6000611f7f82611fa4565b9050919050565b6000611f9182611fa4565b9050919050565b60008115159050919050565b600073ffffffffffffffffffffffffffffffffffffffff82169050919050565b6000819050919050565b6000611fd982612016565b9050919050565b6000611feb82611ff2565b9050919050565b6000611ffd82611fa4565b9050919050565b600061200f82611fc4565b9050919050565b600061202182612028565b9050919050565b600061203382611fa4565b9050919050565b61204381611f74565b811461204e57600080fd5b50565b61205a81611f98565b811461206557600080fd5b50565b61207181611fc4565b811461207c57600080fd5b5056fea2646970667358221220c73762e81ba319c06ac8e867e7730da033f5025f28dbaaf45dcf0ead41be3dcb64736f6c63430008000033",
  "linkReferences": {},
  "deployedLinkReferences": {}
}